:020000020000FC
:040000000C94180044
:04001C000C944800F8
:100028000C943D000C9441000FE50DBF08E00EBF95
:100038001AE0A09AA898A19AA998A29AAA98A5980D
:10004800AD9AA698AE9AA798AF9A00E002BF05E0CD
:100058000CBF01E003BF00E00DBD0CBD0DE30BBDFF
:1000680009E00ABD0BE00EBD03E109BF27E0789463
:10007800FFCFA898A998AA98189505B3322F30955C
:100088003023322B35BB18950CB79D9B01C004C09B
:10009800011B0F3050F008C09E9B01C004C0010F27
:1000A800003F18F401C001C00CBF9F9B01C005C0F0
:0C00B80001E0200F283008F020E018952F
:00000001FF
