:020000020000FC
:040000000C941E003E
:100038000C94470008E00EBF0FE50DBF00E000BDBF
:1000480003E309B908E20AB9A098A89AA198A99A5D
:10005800A298AA9A40E0F0E0E0E04030A1F4E9F785
:10006800F0E0E0E0989B01C002C001E0402B999BC2
:1000780001C002C002E0402B9A9B01C002C004E00C
:10008800402B01C0EACFF030F1F4E030E1F401E0B8
:100098000423013029F4F1E0ECE205910CB940C0E9
:1000A80002E00423023029F4F1E0E6E305910CB9FB
:1000B80037C004E00423043029F4F1E0E0E40591BA
:1000C8000CB92EC02DC001E00423013059F405916C
:1000D8000CB9F13029F5E63319F50EEF4023F0E0BD
:1000E800E0E01EC002E00423023059F405910CB987
:1000F800F130B1F4E034A1F40DEF4023F0E0E0E09A
:100108000FC004E00423043059F405910CB9F13010
:1001180039F4EA3429F40BEF4023F0E0E0E000C0C2
:10012800B1CF1895627574746F6E5F313A0062755D
:1001380074746F6E5F323A00627574746F6E5F33F9
:020148003A007B
:00000001FF
