:020000020000FC
:040000000C941E003E
:100038000C94490008E00EBF0FE50DBF00E000BDBD
:1000480003E309B908E20AB9A598AD9AA698AE9A49
:10005800A798AF9AA09AA19AA29A40E0F0E0E0E0AF
:1000680078944030F1F7F0E0E0E09D9B01C002C0D9
:1000780001E0402B9E9B01C002C002E0402B9F9BE9
:1000880001C002C004E0402BECCF9D9BA89A9D992B
:10009800A8989E9BA99A9E99A9989F9BAA9A9F996E
:1000A800AA980AE20CB9F030F1F4E030E1F401E08A
:1000B8000423013029F4F1E0EAE405910CB940C0C9
:1000C80002E00423023029F4F1E0E4E505910CB9DB
:1000D80037C004E00423043029F4F1E0EEE505918B
:1000E8000CB92EC02DC001E00423013059F405914C
:1000F8000CB9F13029F5E43519F50EEF4023F0E09D
:10010800E0E01EC002E00423023059F405910CB966
:10011800F130B1F4EE35A1F40DEF4023F0E0E0E06A
:100128000FC004E00423043059F405910CB9F130F0
:1001380039F4E83629F40BEF4023F0E0E0E000C0A2
:100148001895627574746F6E5F313A0062757474D5
:100158006F6E5F323A00627574746F6E5F333A0087
:00000001FF
